{
  "_format": "hh-sol-artifact-1",
  "contractName": "IPAssetRegistrarOApp",
  "sourceName": "contracts/IPAssetRegistrarOApp.sol",
  "abi": [
    {
      "inputs": [
        {
          "internalType": "address",
          "name": "_endpoint",
          "type": "address"
        },
        {
          "internalType": "address",
          "name": "_owner",
          "type": "address"
        }
      ],
      "stateMutability": "nonpayable",
      "type": "constructor"
    },
    {
      "inputs": [
        {
          "internalType": "address",
          "name": "target",
          "type": "address"
        }
      ],
      "name": "AddressEmptyCode",
      "type": "error"
    },
    {
      "inputs": [
        {
          "internalType": "address",
          "name": "account",
          "type": "address"
        }
      ],
      "name": "AddressInsufficientBalance",
      "type": "error"
    },
    {
      "inputs": [],
      "name": "FailedInnerCall",
      "type": "error"
    },
    {
      "inputs": [],
      "name": "InvalidDelegate",
      "type": "error"
    },
    {
      "inputs": [],
      "name": "InvalidEndpointCall",
      "type": "error"
    },
    {
      "inputs": [],
      "name": "LzTokenUnavailable",
      "type": "error"
    },
    {
      "inputs": [
        {
          "internalType": "uint32",
          "name": "eid",
          "type": "uint32"
        }
      ],
      "name": "NoPeer",
      "type": "error"
    },
    {
      "inputs": [
        {
          "internalType": "uint256",
          "name": "msgValue",
          "type": "uint256"
        }
      ],
      "name": "NotEnoughNative",
      "type": "error"
    },
    {
      "inputs": [
        {
          "internalType": "address",
          "name": "addr",
          "type": "address"
        }
      ],
      "name": "OnlyEndpoint",
      "type": "error"
    },
    {
      "inputs": [
        {
          "internalType": "uint32",
          "name": "eid",
          "type": "uint32"
        },
        {
          "internalType": "bytes32",
          "name": "sender",
          "type": "bytes32"
        }
      ],
      "name": "OnlyPeer",
      "type": "error"
    },
    {
      "inputs": [
        {
          "internalType": "address",
          "name": "owner",
          "type": "address"
        }
      ],
      "name": "OwnableInvalidOwner",
      "type": "error"
    },
    {
      "inputs": [
        {
          "internalType": "address",
          "name": "account",
          "type": "address"
        }
      ],
      "name": "OwnableUnauthorizedAccount",
      "type": "error"
    },
    {
      "inputs": [
        {
          "internalType": "address",
          "name": "token",
          "type": "address"
        }
      ],
      "name": "SafeERC20FailedOperation",
      "type": "error"
    },
    {
      "anonymous": false,
      "inputs": [
        {
          "indexed": true,
          "internalType": "address",
          "name": "previousOwner",
          "type": "address"
        },
        {
          "indexed": true,
          "internalType": "address",
          "name": "newOwner",
          "type": "address"
        }
      ],
      "name": "OwnershipTransferred",
      "type": "event"
    },
    {
      "anonymous": false,
      "inputs": [
        {
          "indexed": false,
          "internalType": "uint32",
          "name": "eid",
          "type": "uint32"
        },
        {
          "indexed": false,
          "internalType": "bytes32",
          "name": "peer",
          "type": "bytes32"
        }
      ],
      "name": "PeerSet",
      "type": "event"
    },
    {
      "inputs": [
        {
          "components": [
            {
              "internalType": "uint32",
              "name": "srcEid",
              "type": "uint32"
            },
            {
              "internalType": "bytes32",
              "name": "sender",
              "type": "bytes32"
            },
            {
              "internalType": "uint64",
              "name": "nonce",
              "type": "uint64"
            }
          ],
          "internalType": "struct Origin",
          "name": "origin",
          "type": "tuple"
        }
      ],
      "name": "allowInitializePath",
      "outputs": [
        {
          "internalType": "bool",
          "name": "",
          "type": "bool"
        }
      ],
      "stateMutability": "view",
      "type": "function"
    },
    {
      "inputs": [
        {
          "internalType": "address",
          "name": "",
          "type": "address"
        }
      ],
      "name": "allowedCollections",
      "outputs": [
        {
          "internalType": "bool",
          "name": "",
          "type": "bool"
        }
      ],
      "stateMutability": "view",
      "type": "function"
    },
    {
      "inputs": [],
      "name": "chainId",
      "outputs": [
        {
          "internalType": "uint256",
          "name": "",
          "type": "uint256"
        }
      ],
      "stateMutability": "view",
      "type": "function"
    },
    {
      "inputs": [],
      "name": "currentMintData",
      "outputs": [
        {
          "internalType": "address",
          "name": "collectionAddress",
          "type": "address"
        },
        {
          "internalType": "address",
          "name": "to",
          "type": "address"
        },
        {
          "internalType": "string",
          "name": "uri",
          "type": "string"
        }
      ],
      "stateMutability": "view",
      "type": "function"
    },
    {
      "inputs": [],
      "name": "endpoint",
      "outputs": [
        {
          "internalType": "contract ILayerZeroEndpointV2",
          "name": "",
          "type": "address"
        }
      ],
      "stateMutability": "view",
      "type": "function"
    },
    {
      "inputs": [],
      "name": "ipAssetRegistry",
      "outputs": [
        {
          "internalType": "address",
          "name": "",
          "type": "address"
        }
      ],
      "stateMutability": "view",
      "type": "function"
    },
    {
      "inputs": [
        {
          "components": [
            {
              "internalType": "uint32",
              "name": "srcEid",
              "type": "uint32"
            },
            {
              "internalType": "bytes32",
              "name": "sender",
              "type": "bytes32"
            },
            {
              "internalType": "uint64",
              "name": "nonce",
              "type": "uint64"
            }
          ],
          "internalType": "struct Origin",
          "name": "",
          "type": "tuple"
        },
        {
          "internalType": "bytes",
          "name": "",
          "type": "bytes"
        },
        {
          "internalType": "address",
          "name": "_sender",
          "type": "address"
        }
      ],
      "name": "isComposeMsgSender",
      "outputs": [
        {
          "internalType": "bool",
          "name": "",
          "type": "bool"
        }
      ],
      "stateMutability": "view",
      "type": "function"
    },
    {
      "inputs": [
        {
          "components": [
            {
              "internalType": "uint32",
              "name": "srcEid",
              "type": "uint32"
            },
            {
              "internalType": "bytes32",
              "name": "sender",
              "type": "bytes32"
            },
            {
              "internalType": "uint64",
              "name": "nonce",
              "type": "uint64"
            }
          ],
          "internalType": "struct Origin",
          "name": "_origin",
          "type": "tuple"
        },
        {
          "internalType": "bytes32",
          "name": "_guid",
          "type": "bytes32"
        },
        {
          "internalType": "bytes",
          "name": "_message",
          "type": "bytes"
        },
        {
          "internalType": "address",
          "name": "_executor",
          "type": "address"
        },
        {
          "internalType": "bytes",
          "name": "_extraData",
          "type": "bytes"
        }
      ],
      "name": "lzReceive",
      "outputs": [],
      "stateMutability": "payable",
      "type": "function"
    },
    {
      "inputs": [],
      "name": "newlyRegisteredIp",
      "outputs": [
        {
          "internalType": "address",
          "name": "",
          "type": "address"
        }
      ],
      "stateMutability": "view",
      "type": "function"
    },
    {
      "inputs": [
        {
          "internalType": "uint32",
          "name": "",
          "type": "uint32"
        },
        {
          "internalType": "bytes32",
          "name": "",
          "type": "bytes32"
        }
      ],
      "name": "nextNonce",
      "outputs": [
        {
          "internalType": "uint64",
          "name": "nonce",
          "type": "uint64"
        }
      ],
      "stateMutability": "view",
      "type": "function"
    },
    {
      "inputs": [],
      "name": "oAppVersion",
      "outputs": [
        {
          "internalType": "uint64",
          "name": "senderVersion",
          "type": "uint64"
        },
        {
          "internalType": "uint64",
          "name": "receiverVersion",
          "type": "uint64"
        }
      ],
      "stateMutability": "pure",
      "type": "function"
    },
    {
      "inputs": [],
      "name": "owner",
      "outputs": [
        {
          "internalType": "address",
          "name": "",
          "type": "address"
        }
      ],
      "stateMutability": "view",
      "type": "function"
    },
    {
      "inputs": [
        {
          "internalType": "uint32",
          "name": "eid",
          "type": "uint32"
        }
      ],
      "name": "peers",
      "outputs": [
        {
          "internalType": "bytes32",
          "name": "peer",
          "type": "bytes32"
        }
      ],
      "stateMutability": "view",
      "type": "function"
    },
    {
      "inputs": [
        {
          "internalType": "uint32",
          "name": "_dstEid",
          "type": "uint32"
        },
        {
          "components": [
            {
              "internalType": "address",
              "name": "collectionAddress",
              "type": "address"
            },
            {
              "internalType": "address",
              "name": "to",
              "type": "address"
            },
            {
              "internalType": "string",
              "name": "uri",
              "type": "string"
            }
          ],
          "internalType": "struct MintData",
          "name": "_mintData",
          "type": "tuple"
        },
        {
          "internalType": "bytes",
          "name": "_options",
          "type": "bytes"
        }
      ],
      "name": "quote",
      "outputs": [
        {
          "internalType": "uint256",
          "name": "nativeFee",
          "type": "uint256"
        },
        {
          "internalType": "uint256",
          "name": "lzTokenFee",
          "type": "uint256"
        }
      ],
      "stateMutability": "view",
      "type": "function"
    },
    {
      "inputs": [],
      "name": "renounceOwnership",
      "outputs": [],
      "stateMutability": "nonpayable",
      "type": "function"
    },
    {
      "inputs": [
        {
          "internalType": "uint32",
          "name": "_dstEid",
          "type": "uint32"
        },
        {
          "components": [
            {
              "internalType": "address",
              "name": "collectionAddress",
              "type": "address"
            },
            {
              "internalType": "address",
              "name": "to",
              "type": "address"
            },
            {
              "internalType": "string",
              "name": "uri",
              "type": "string"
            }
          ],
          "internalType": "struct MintData",
          "name": "_mintData",
          "type": "tuple"
        },
        {
          "internalType": "bytes",
          "name": "_options",
          "type": "bytes"
        }
      ],
      "name": "send",
      "outputs": [],
      "stateMutability": "payable",
      "type": "function"
    },
    {
      "inputs": [
        {
          "internalType": "address",
          "name": "_collection",
          "type": "address"
        },
        {
          "internalType": "bool",
          "name": "_allowed",
          "type": "bool"
        }
      ],
      "name": "setAllowedCollection",
      "outputs": [],
      "stateMutability": "nonpayable",
      "type": "function"
    },
    {
      "inputs": [
        {
          "internalType": "address",
          "name": "_delegate",
          "type": "address"
        }
      ],
      "name": "setDelegate",
      "outputs": [],
      "stateMutability": "nonpayable",
      "type": "function"
    },
    {
      "inputs": [
        {
          "internalType": "address",
          "name": "_ipAssetRegistry",
          "type": "address"
        },
        {
          "internalType": "uint256",
          "name": "_chainId",
          "type": "uint256"
        }
      ],
      "name": "setIpAssetRegistry",
      "outputs": [],
      "stateMutability": "nonpayable",
      "type": "function"
    },
    {
      "inputs": [
        {
          "internalType": "uint32",
          "name": "_eid",
          "type": "uint32"
        },
        {
          "internalType": "bytes32",
          "name": "_peer",
          "type": "bytes32"
        }
      ],
      "name": "setPeer",
      "outputs": [],
      "stateMutability": "nonpayable",
      "type": "function"
    },
    {
      "inputs": [],
      "name": "tokenId",
      "outputs": [
        {
          "internalType": "uint256",
          "name": "",
          "type": "uint256"
        }
      ],
      "stateMutability": "view",
      "type": "function"
    },
    {
      "inputs": [
        {
          "internalType": "address",
          "name": "newOwner",
          "type": "address"
        }
      ],
      "name": "transferOwnership",
      "outputs": [],
      "stateMutability": "nonpayable",
      "type": "function"
    }
  ],
  "bytecode": "0x60a06040523480156200001157600080fd5b5060405162001b3438038062001b34833981016040819052620000349162000173565b8181818133806200005f57604051631e4fbdf760e01b81526000600482015260240160405180910390fd5b6200006a8162000106565b506001600160a01b0380831660805281166200009957604051632d618d8160e21b815260040160405180910390fd5b60805160405163ca5eb5e160e01b81526001600160a01b0383811660048301529091169063ca5eb5e190602401600060405180830381600087803b158015620000e157600080fd5b505af1158015620000f6573d6000803e3d6000fd5b50505050505050505050620001ab565b600080546001600160a01b038381166001600160a01b0319831681178455604051919092169283917f8be0079c531659141344cd1fd0a4f28419497f9722a3daafe3b4186f6b6457e09190a35050565b80516001600160a01b03811681146200016e57600080fd5b919050565b600080604083850312156200018757600080fd5b620001928362000156565b9150620001a26020840162000156565b90509250929050565b608051611943620001f16000396000818161024401528181610474015281816106c301528181610b7801528181610c7601528181610d7a0152610e3101526119436000f3fe6080604052600436106101355760003560e01c80638da5cb5b116100ab578063bb0b6a531161006f578063bb0b6a53146103b2578063ca5eb5e1146103df578063db489512146103ff578063f2fde38b1461041f578063f9b1c9211461043f578063ff7bd03d1461045257600080fd5b80638da5cb5b146102f55780639502b5471461031357806397d7a490146103485780639a8a059214610378578063b0442e941461038e57600080fd5b80633dcd103d116100fd5780633dcd103d146101f2578063427b0f55146102125780635e280f1114610232578063715018a6146102665780637d25a05e1461027b57806382413eac146102b657600080fd5b806303b708a71461013a57806313137d651461017757806317442b701461018c57806317d70f7c146101ae5780633400288b146101d2575b600080fd5b34801561014657600080fd5b5060095461015a906001600160a01b031681565b6040516001600160a01b0390911681526020015b60405180910390f35b61018a610185366004611109565b610472565b005b34801561019857600080fd5b506040805160018152600260208201520161016e565b3480156101ba57600080fd5b506101c460055481565b60405190815260200161016e565b3480156101de57600080fd5b5061018a6101ed3660046111c1565b610532565b3480156101fe57600080fd5b5060035461015a906001600160a01b031681565b34801561021e57600080fd5b5061018a61022d3660046111eb565b610548565b34801561023e57600080fd5b5061015a7f000000000000000000000000000000000000000000000000000000000000000081565b34801561027257600080fd5b5061018a610576565b34801561028757600080fd5b5061029e6102963660046111c1565b600092915050565b6040516001600160401b03909116815260200161016e565b3480156102c257600080fd5b506102e56102d1366004611209565b6001600160a01b0381163014949350505050565b604051901515815260200161016e565b34801561030157600080fd5b506000546001600160a01b031661015a565b34801561031f57600080fd5b5061033361032e36600461126f565b61058a565b6040805192835260208301919091520161016e565b34801561035457600080fd5b506102e56103633660046112e5565b60026020526000908152604090205460ff1681565b34801561038457600080fd5b506101c460045481565b34801561039a57600080fd5b506103a36105f4565b60405161016e93929190611352565b3480156103be57600080fd5b506101c46103cd36600461137e565b60016020526000908152604090205481565b3480156103eb57600080fd5b5061018a6103fa3660046112e5565b61069c565b34801561040b57600080fd5b5061018a61041a3660046113a7565b610722565b34801561042b57600080fd5b5061018a61043a3660046112e5565b610755565b61018a61044d36600461126f565b610793565b34801561045e57600080fd5b506102e561046d3660046113e0565b610800565b7f00000000000000000000000000000000000000000000000000000000000000006001600160a01b031633146104c2576040516391ac5e4f60e01b81523360048201526024015b60405180910390fd5b602087018035906104dc906104d7908a61137e565b610836565b1461051a576104ee602088018861137e565b60405163309afaf360e21b815263ffffffff9091166004820152602088013560248201526044016104b9565b61052987878787878787610878565b50505050505050565b61053a610a67565b6105448282610a94565b5050565b610550610a67565b600380546001600160a01b0319166001600160a01b039390931692909217909155600455565b61057e610a67565b6105886000610ae9565b565b600080600061059886610b39565b905060006105dd888388888080601f01602080910402602001604051908101604052809392919081815260200183838082843760009201829052509250610b62915050565b805160209091015190999098509650505050505050565b60068054600754600880546001600160a01b03938416949290931692610619906113fc565b80601f0160208091040260200160405190810160405280929190818152602001828054610645906113fc565b80156106925780601f1061066757610100808354040283529160200191610692565b820191906000526020600020905b81548152906001019060200180831161067557829003601f168201915b5050505050905083565b6106a4610a67565b60405163ca5eb5e160e01b81526001600160a01b0382811660048301527f0000000000000000000000000000000000000000000000000000000000000000169063ca5eb5e190602401600060405180830381600087803b15801561070757600080fd5b505af115801561071b573d6000803e3d6000fd5b5050505050565b61072a610a67565b6001600160a01b03919091166000908152600260205260409020805460ff1916911515919091179055565b61075d610a67565b6001600160a01b03811661078757604051631e4fbdf760e01b8152600060048201526024016104b9565b61079081610ae9565b50565b600061079e84610b39565b90506107f8858285858080601f01602080910402602001604051908101604052809392919081815260200183838082843760009201829052506040805180820190915234815260208101919091529250339150610c439050565b505050505050565b6000602082018035906001908390610818908661137e565b63ffffffff1681526020810191909152604001600020541492915050565b63ffffffff8116600090815260016020526040812054806108725760405163f6ff4fb760e01b815263ffffffff841660048201526024016104b9565b92915050565b60006108868587018761149e565b80516001600160a01b031660009081526002602052604090205490915060ff166108eb5760405162461bcd60e51b815260206004820152601660248201527510dbdb1b1958dd1a5bdb881b9bdd08185b1b1bddd95960521b60448201526064016104b9565b805160208201516040808401519051636902622f60e11b81526000936001600160a01b03169263d204c45e9261092392600401611584565b6020604051808303816000875af1158015610942573d6000803e3d6000fd5b505050506040513d601f19601f8201168201806040525081019061096691906115b0565b8251600680546001600160a01b039283166001600160a01b031991821617825560208601516007805491909416911617909155604084015191925083916008906109b0908261160f565b5050506005819055600354600480548451604051633f2891eb60e21b8152928301919091526001600160a01b039081166024830152604482018490529091169063fca247ac906064016020604051808303816000875af1158015610a18573d6000803e3d6000fd5b505050506040513d601f19601f82011682018060405250810190610a3c91906116ce565b600980546001600160a01b0319166001600160a01b0392909216919091179055505050505050505050565b6000546001600160a01b031633146105885760405163118cdaa760e01b81523360048201526024016104b9565b63ffffffff8216600081815260016020908152604091829020849055815192835282018390527f238399d427b947898edb290f5ff0f9109849b1c3ba196a42e35f00c50a54b98b910160405180910390a15050565b600080546001600160a01b038381166001600160a01b0319831681178455604051919092169283917f8be0079c531659141344cd1fd0a4f28419497f9722a3daafe3b4186f6b6457e09190a35050565b606081604051602001610b4c91906116eb565b6040516020818303038152906040529050919050565b60408051808201909152600080825260208201527f00000000000000000000000000000000000000000000000000000000000000006001600160a01b031663ddc28c586040518060a001604052808863ffffffff168152602001610bc589610836565b8152602001878152602001868152602001851515815250306040518363ffffffff1660e01b8152600401610bfa92919061179b565b6040805180830381865afa158015610c16573d6000803e3d6000fd5b505050506040513d601f19601f82011682018060405250810190610c3a9190611862565b95945050505050565b610c4b61104d565b6000610c5a8460000151610d4e565b602085015190915015610c7457610c748460200151610d76565b7f00000000000000000000000000000000000000000000000000000000000000006001600160a01b0316632637a450826040518060a001604052808b63ffffffff168152602001610cc48c610836565b81526020018a815260200189815260200160008960200151111515815250866040518463ffffffff1660e01b8152600401610d0092919061179b565b60806040518083038185885af1158015610d1e573d6000803e3d6000fd5b50505050506040513d601f19601f82011682018060405250810190610d43919061187e565b979650505050505050565b6000813414610d72576040516304fb820960e51b81523460048201526024016104b9565b5090565b60007f00000000000000000000000000000000000000000000000000000000000000006001600160a01b031663e4fe1d946040518163ffffffff1660e01b8152600401602060405180830381865afa158015610dd6573d6000803e3d6000fd5b505050506040513d601f19601f82011682018060405250810190610dfa91906116ce565b90506001600160a01b038116610e23576040516329b99a9560e11b815260040160405180910390fd5b6040805133602482018190527f00000000000000000000000000000000000000000000000000000000000000006001600160a01b03818116604485015260648085018890528551808603909101815260849094019094526020830180516001600160e01b03166323b872dd60e01b179052610544938516928690610ea8908590610eae565b50505050565b6000610ec36001600160a01b03841683610f16565b90508051600014158015610ee8575080806020019051810190610ee691906118d4565b155b15610f1157604051635274afe760e01b81526001600160a01b03841660048201526024016104b9565b505050565b6060610f2483836000610f2b565b9392505050565b606081471015610f505760405163cd78605960e01b81523060048201526024016104b9565b600080856001600160a01b03168486604051610f6c91906118f1565b60006040518083038185875af1925050503d8060008114610fa9576040519150601f19603f3d011682016040523d82523d6000602084013e610fae565b606091505b5091509150610fbe868383610fc8565b9695505050505050565b606082610fdd57610fd882611024565b610f24565b8151158015610ff457506001600160a01b0384163b155b1561101d57604051639996b31560e01b81526001600160a01b03851660048201526024016104b9565b5080610f24565b8051156110345780518082602001fd5b604051630a12f52160e11b815260040160405180910390fd5b60405180606001604052806000801916815260200160006001600160401b0316815260200161108f604051806040016040528060008152602001600081525090565b905290565b6000606082840312156110a657600080fd5b50919050565b60008083601f8401126110be57600080fd5b5081356001600160401b038111156110d557600080fd5b6020830191508360208285010111156110ed57600080fd5b9250929050565b6001600160a01b038116811461079057600080fd5b600080600080600080600060e0888a03121561112457600080fd5b61112e8989611094565b96506060880135955060808801356001600160401b038082111561115157600080fd5b61115d8b838c016110ac565b909750955060a08a01359150611172826110f4565b90935060c0890135908082111561118857600080fd5b506111958a828b016110ac565b989b979a50959850939692959293505050565b803563ffffffff811681146111bc57600080fd5b919050565b600080604083850312156111d457600080fd5b6111dd836111a8565b946020939093013593505050565b600080604083850312156111fe57600080fd5b82356111dd816110f4565b60008060008060a0858703121561121f57600080fd5b6112298686611094565b935060608501356001600160401b0381111561124457600080fd5b611250878288016110ac565b9094509250506080850135611264816110f4565b939692955090935050565b6000806000806060858703121561128557600080fd5b61128e856111a8565b935060208501356001600160401b03808211156112aa57600080fd5b6112b688838901611094565b945060408701359150808211156112cc57600080fd5b506112d9878288016110ac565b95989497509550505050565b6000602082840312156112f757600080fd5b8135610f24816110f4565b60005b8381101561131d578181015183820152602001611305565b50506000910152565b6000815180845261133e816020860160208601611302565b601f01601f19169290920160200192915050565b6001600160a01b03848116825283166020820152606060408201819052600090610c3a90830184611326565b60006020828403121561139057600080fd5b610f24826111a8565b801515811461079057600080fd5b600080604083850312156113ba57600080fd5b82356113c5816110f4565b915060208301356113d581611399565b809150509250929050565b6000606082840312156113f257600080fd5b610f248383611094565b600181811c9082168061141057607f821691505b6020821081036110a657634e487b7160e01b600052602260045260246000fd5b634e487b7160e01b600052604160045260246000fd5b604051606081016001600160401b038111828210171561146857611468611430565b60405290565b604051601f8201601f191681016001600160401b038111828210171561149657611496611430565b604052919050565b600060208083850312156114b157600080fd5b82356001600160401b03808211156114c857600080fd5b90840190606082870312156114dc57600080fd5b6114e4611446565b82356114ef816110f4565b8152828401356114fe816110f4565b8185015260408301358281111561151457600080fd5b80840193505086601f84011261152957600080fd5b82358281111561153b5761153b611430565b61154d601f8201601f1916860161146e565b9250808352878582860101111561156357600080fd5b80858501868501376000908301909401939093526040830152509392505050565b6001600160a01b03831681526040602082018190526000906115a890830184611326565b949350505050565b6000602082840312156115c257600080fd5b5051919050565b601f821115610f1157600081815260208120601f850160051c810160208610156115f05750805b601f850160051c820191505b818110156107f8578281556001016115fc565b81516001600160401b0381111561162857611628611430565b61163c8161163684546113fc565b846115c9565b602080601f83116001811461167157600084156116595750858301515b600019600386901b1c1916600185901b1785556107f8565b600085815260208120601f198616915b828110156116a057888601518255948401946001909101908401611681565b50858210156116be5787850151600019600388901b60f8161c191681555b5050505050600190811b01905550565b6000602082840312156116e057600080fd5b8151610f24816110f4565b60208152600082356116fc816110f4565b6001600160a01b039081166020848101919091528401359061171d826110f4565b1660408381019190915283013536849003601e1901811261173d57600080fd5b83016020810190356001600160401b0381111561175957600080fd5b80360382131561176857600080fd5b606080850152806080850152808260a0860137600060a0828601015260a0601f19601f8301168501019250505092915050565b6040815263ffffffff8351166040820152602083015160608201526000604084015160a060808401526117d160e0840182611326565b90506060850151603f198483030160a08501526117ee8282611326565b60809690960151151560c08501525050506001600160a01b039190911660209091015290565b60006040828403121561182657600080fd5b604051604081018181106001600160401b038211171561184857611848611430565b604052825181526020928301519281019290925250919050565b60006040828403121561187457600080fd5b610f248383611814565b60006080828403121561189057600080fd5b611898611446565b8251815260208301516001600160401b03811681146118b657600080fd5b60208201526118c88460408501611814565b60408201529392505050565b6000602082840312156118e657600080fd5b8151610f2481611399565b60008251611903818460208701611302565b919091019291505056fea264697066735822122084fc9d60dd30be10f6688df83ac5c5adf1be7889d39e7b34cc52672a71fd32d264736f6c63430008140033",
  "linkReferences": {},
  "deployedLinkReferences": {}
}