{
  "_format": "hh-sol-artifact-1",
  "contractName": "SimpleIpNft",
  "sourceName": "contracts/SimpleIpNft.sol",
  "abi": [
    {
      "inputs": [
        {
          "internalType": "address",
          "name": "initialOwner",
          "type": "address"
        }
      ],
      "stateMutability": "nonpayable",
      "type": "constructor"
    },
    {
      "inputs": [
        {
          "internalType": "address",
          "name": "sender",
          "type": "address"
        },
        {
          "internalType": "uint256",
          "name": "tokenId",
          "type": "uint256"
        },
        {
          "internalType": "address",
          "name": "owner",
          "type": "address"
        }
      ],
      "name": "ERC721IncorrectOwner",
      "type": "error"
    },
    {
      "inputs": [
        {
          "internalType": "address",
          "name": "operator",
          "type": "address"
        },
        {
          "internalType": "uint256",
          "name": "tokenId",
          "type": "uint256"
        }
      ],
      "name": "ERC721InsufficientApproval",
      "type": "error"
    },
    {
      "inputs": [
        {
          "internalType": "address",
          "name": "approver",
          "type": "address"
        }
      ],
      "name": "ERC721InvalidApprover",
      "type": "error"
    },
    {
      "inputs": [
        {
          "internalType": "address",
          "name": "operator",
          "type": "address"
        }
      ],
      "name": "ERC721InvalidOperator",
      "type": "error"
    },
    {
      "inputs": [
        {
          "internalType": "address",
          "name": "owner",
          "type": "address"
        }
      ],
      "name": "ERC721InvalidOwner",
      "type": "error"
    },
    {
      "inputs": [
        {
          "internalType": "address",
          "name": "receiver",
          "type": "address"
        }
      ],
      "name": "ERC721InvalidReceiver",
      "type": "error"
    },
    {
      "inputs": [
        {
          "internalType": "address",
          "name": "sender",
          "type": "address"
        }
      ],
      "name": "ERC721InvalidSender",
      "type": "error"
    },
    {
      "inputs": [
        {
          "internalType": "uint256",
          "name": "tokenId",
          "type": "uint256"
        }
      ],
      "name": "ERC721NonexistentToken",
      "type": "error"
    },
    {
      "inputs": [
        {
          "internalType": "address",
          "name": "owner",
          "type": "address"
        }
      ],
      "name": "OwnableInvalidOwner",
      "type": "error"
    },
    {
      "inputs": [
        {
          "internalType": "address",
          "name": "account",
          "type": "address"
        }
      ],
      "name": "OwnableUnauthorizedAccount",
      "type": "error"
    },
    {
      "anonymous": false,
      "inputs": [
        {
          "indexed": true,
          "internalType": "address",
          "name": "owner",
          "type": "address"
        },
        {
          "indexed": true,
          "internalType": "address",
          "name": "approved",
          "type": "address"
        },
        {
          "indexed": true,
          "internalType": "uint256",
          "name": "tokenId",
          "type": "uint256"
        }
      ],
      "name": "Approval",
      "type": "event"
    },
    {
      "anonymous": false,
      "inputs": [
        {
          "indexed": true,
          "internalType": "address",
          "name": "owner",
          "type": "address"
        },
        {
          "indexed": true,
          "internalType": "address",
          "name": "operator",
          "type": "address"
        },
        {
          "indexed": false,
          "internalType": "bool",
          "name": "approved",
          "type": "bool"
        }
      ],
      "name": "ApprovalForAll",
      "type": "event"
    },
    {
      "anonymous": false,
      "inputs": [
        {
          "indexed": false,
          "internalType": "uint256",
          "name": "_fromTokenId",
          "type": "uint256"
        },
        {
          "indexed": false,
          "internalType": "uint256",
          "name": "_toTokenId",
          "type": "uint256"
        }
      ],
      "name": "BatchMetadataUpdate",
      "type": "event"
    },
    {
      "anonymous": false,
      "inputs": [
        {
          "indexed": false,
          "internalType": "uint256",
          "name": "_tokenId",
          "type": "uint256"
        }
      ],
      "name": "MetadataUpdate",
      "type": "event"
    },
    {
      "anonymous": false,
      "inputs": [
        {
          "indexed": true,
          "internalType": "address",
          "name": "previousOwner",
          "type": "address"
        },
        {
          "indexed": true,
          "internalType": "address",
          "name": "newOwner",
          "type": "address"
        }
      ],
      "name": "OwnershipTransferred",
      "type": "event"
    },
    {
      "anonymous": false,
      "inputs": [
        {
          "indexed": true,
          "internalType": "address",
          "name": "from",
          "type": "address"
        },
        {
          "indexed": true,
          "internalType": "address",
          "name": "to",
          "type": "address"
        },
        {
          "indexed": true,
          "internalType": "uint256",
          "name": "tokenId",
          "type": "uint256"
        }
      ],
      "name": "Transfer",
      "type": "event"
    },
    {
      "inputs": [
        {
          "internalType": "address",
          "name": "to",
          "type": "address"
        },
        {
          "internalType": "uint256",
          "name": "tokenId",
          "type": "uint256"
        }
      ],
      "name": "approve",
      "outputs": [],
      "stateMutability": "nonpayable",
      "type": "function"
    },
    {
      "inputs": [
        {
          "internalType": "address",
          "name": "owner",
          "type": "address"
        }
      ],
      "name": "balanceOf",
      "outputs": [
        {
          "internalType": "uint256",
          "name": "",
          "type": "uint256"
        }
      ],
      "stateMutability": "view",
      "type": "function"
    },
    {
      "inputs": [
        {
          "internalType": "uint256",
          "name": "tokenId",
          "type": "uint256"
        }
      ],
      "name": "getApproved",
      "outputs": [
        {
          "internalType": "address",
          "name": "",
          "type": "address"
        }
      ],
      "stateMutability": "view",
      "type": "function"
    },
    {
      "inputs": [
        {
          "internalType": "address",
          "name": "owner",
          "type": "address"
        },
        {
          "internalType": "address",
          "name": "operator",
          "type": "address"
        }
      ],
      "name": "isApprovedForAll",
      "outputs": [
        {
          "internalType": "bool",
          "name": "",
          "type": "bool"
        }
      ],
      "stateMutability": "view",
      "type": "function"
    },
    {
      "inputs": [],
      "name": "name",
      "outputs": [
        {
          "internalType": "string",
          "name": "",
          "type": "string"
        }
      ],
      "stateMutability": "view",
      "type": "function"
    },
    {
      "inputs": [],
      "name": "owner",
      "outputs": [
        {
          "internalType": "address",
          "name": "",
          "type": "address"
        }
      ],
      "stateMutability": "view",
      "type": "function"
    },
    {
      "inputs": [
        {
          "internalType": "uint256",
          "name": "tokenId",
          "type": "uint256"
        }
      ],
      "name": "ownerOf",
      "outputs": [
        {
          "internalType": "address",
          "name": "",
          "type": "address"
        }
      ],
      "stateMutability": "view",
      "type": "function"
    },
    {
      "inputs": [],
      "name": "renounceOwnership",
      "outputs": [],
      "stateMutability": "nonpayable",
      "type": "function"
    },
    {
      "inputs": [
        {
          "internalType": "address",
          "name": "to",
          "type": "address"
        },
        {
          "internalType": "string",
          "name": "uri",
          "type": "string"
        }
      ],
      "name": "safeMint",
      "outputs": [
        {
          "internalType": "uint256",
          "name": "tokenId",
          "type": "uint256"
        }
      ],
      "stateMutability": "nonpayable",
      "type": "function"
    },
    {
      "inputs": [
        {
          "internalType": "address",
          "name": "from",
          "type": "address"
        },
        {
          "internalType": "address",
          "name": "to",
          "type": "address"
        },
        {
          "internalType": "uint256",
          "name": "tokenId",
          "type": "uint256"
        }
      ],
      "name": "safeTransferFrom",
      "outputs": [],
      "stateMutability": "nonpayable",
      "type": "function"
    },
    {
      "inputs": [
        {
          "internalType": "address",
          "name": "from",
          "type": "address"
        },
        {
          "internalType": "address",
          "name": "to",
          "type": "address"
        },
        {
          "internalType": "uint256",
          "name": "tokenId",
          "type": "uint256"
        },
        {
          "internalType": "bytes",
          "name": "data",
          "type": "bytes"
        }
      ],
      "name": "safeTransferFrom",
      "outputs": [],
      "stateMutability": "nonpayable",
      "type": "function"
    },
    {
      "inputs": [
        {
          "internalType": "address",
          "name": "operator",
          "type": "address"
        },
        {
          "internalType": "bool",
          "name": "approved",
          "type": "bool"
        }
      ],
      "name": "setApprovalForAll",
      "outputs": [],
      "stateMutability": "nonpayable",
      "type": "function"
    },
    {
      "inputs": [
        {
          "internalType": "bytes4",
          "name": "interfaceId",
          "type": "bytes4"
        }
      ],
      "name": "supportsInterface",
      "outputs": [
        {
          "internalType": "bool",
          "name": "",
          "type": "bool"
        }
      ],
      "stateMutability": "view",
      "type": "function"
    },
    {
      "inputs": [],
      "name": "symbol",
      "outputs": [
        {
          "internalType": "string",
          "name": "",
          "type": "string"
        }
      ],
      "stateMutability": "view",
      "type": "function"
    },
    {
      "inputs": [
        {
          "internalType": "uint256",
          "name": "tokenId",
          "type": "uint256"
        }
      ],
      "name": "tokenURI",
      "outputs": [
        {
          "internalType": "string",
          "name": "",
          "type": "string"
        }
      ],
      "stateMutability": "view",
      "type": "function"
    },
    {
      "inputs": [
        {
          "internalType": "address",
          "name": "from",
          "type": "address"
        },
        {
          "internalType": "address",
          "name": "to",
          "type": "address"
        },
        {
          "internalType": "uint256",
          "name": "tokenId",
          "type": "uint256"
        }
      ],
      "name": "transferFrom",
      "outputs": [],
      "stateMutability": "nonpayable",
      "type": "function"
    },
    {
      "inputs": [
        {
          "internalType": "address",
          "name": "newOwner",
          "type": "address"
        }
      ],
      "name": "transferOwnership",
      "outputs": [],
      "stateMutability": "nonpayable",
      "type": "function"
    }
  ],
  "bytecode": "0x60806040523480156200001157600080fd5b506040516200171b3803806200171b83398101604081905262000034916200012e565b806040518060400160405280600d81526020016c14da5b5c1b1948125408139195609a1b8152506040518060400160405280600381526020016253494d60e81b815250816000908162000088919062000205565b50600162000097828262000205565b5050506001600160a01b038116620000c957604051631e4fbdf760e01b81526000600482015260240160405180910390fd5b620000d481620000dc565b5050620002d1565b600780546001600160a01b038381166001600160a01b0319831681179093556040519116919082907f8be0079c531659141344cd1fd0a4f28419497f9722a3daafe3b4186f6b6457e090600090a35050565b6000602082840312156200014157600080fd5b81516001600160a01b03811681146200015957600080fd5b9392505050565b634e487b7160e01b600052604160045260246000fd5b600181811c908216806200018b57607f821691505b602082108103620001ac57634e487b7160e01b600052602260045260246000fd5b50919050565b601f8211156200020057600081815260208120601f850160051c81016020861015620001db5750805b601f850160051c820191505b81811015620001fc57828155600101620001e7565b5050505b505050565b81516001600160401b0381111562000221576200022162000160565b620002398162000232845462000176565b84620001b2565b602080601f831160018114620002715760008415620002585750858301515b600019600386901b1c1916600185901b178555620001fc565b600085815260208120601f198616915b82811015620002a25788860151825594840194600190910190840162000281565b5085821015620002c15787850151600019600388901b60f8161c191681555b5050505050600190811b01905550565b61143a80620002e16000396000f3fe608060405234801561001057600080fd5b506004361061010b5760003560e01c8063715018a6116100a2578063b88d4fde11610071578063b88d4fde1461021b578063c87b56dd1461022e578063d204c45e14610241578063e985e9c514610254578063f2fde38b1461026757600080fd5b8063715018a6146101e75780638da5cb5b146101ef57806395d89b4114610200578063a22cb4651461020857600080fd5b806323b872dd116100de57806323b872dd1461018d57806342842e0e146101a05780636352211e146101b357806370a08231146101c657600080fd5b806301ffc9a71461011057806306fdde0314610138578063081812fc1461014d578063095ea7b314610178575b600080fd5b61012361011e366004610efd565b61027a565b60405190151581526020015b60405180910390f35b61014061028b565b60405161012f9190610f6a565b61016061015b366004610f7d565b61031d565b6040516001600160a01b03909116815260200161012f565b61018b610186366004610fb2565b610346565b005b61018b61019b366004610fdc565b610355565b61018b6101ae366004610fdc565b6103e5565b6101606101c1366004610f7d565b610405565b6101d96101d4366004611018565b610410565b60405190815260200161012f565b61018b610458565b6007546001600160a01b0316610160565b61014061046c565b61018b610216366004611033565b61047b565b61018b6102293660046110fb565b610486565b61014061023c366004610f7d565b61049d565b6101d961024f366004611177565b6104a8565b6101236102623660046111d9565b6104dc565b61018b610275366004611018565b61050a565b600061028582610548565b92915050565b60606000805461029a9061120c565b80601f01602080910402602001604051908101604052809291908181526020018280546102c69061120c565b80156103135780601f106102e857610100808354040283529160200191610313565b820191906000526020600020905b8154815290600101906020018083116102f657829003601f168201915b5050505050905090565b60006103288261056d565b506000828152600460205260409020546001600160a01b0316610285565b6103518282336105a6565b5050565b6001600160a01b03821661038457604051633250574960e11b8152600060048201526024015b60405180910390fd5b60006103918383336105b3565b9050836001600160a01b0316816001600160a01b0316146103df576040516364283d7b60e01b81526001600160a01b038086166004830152602482018490528216604482015260640161037b565b50505050565b61040083838360405180602001604052806000815250610486565b505050565b60006102858261056d565b60006001600160a01b03821661043c576040516322718ad960e21b81526000600482015260240161037b565b506001600160a01b031660009081526003602052604090205490565b6104606106ac565b61046a60006106d9565b565b60606001805461029a9061120c565b61035133838361072b565b610491848484610355565b6103df848484846107ca565b6060610285826108f3565b60006104b26106ac565b600880549060006104c283611246565b9190505590506104d28382610a04565b6102858183610a1e565b6001600160a01b03918216600090815260056020908152604080832093909416825291909152205460ff1690565b6105126106ac565b6001600160a01b03811661053c57604051631e4fbdf760e01b81526000600482015260240161037b565b610545816106d9565b50565b60006001600160e01b03198216632483248360e11b1480610285575061028582610a6e565b6000818152600260205260408120546001600160a01b03168061028557604051637e27328960e01b81526004810184905260240161037b565b6104008383836001610abe565b6000828152600260205260408120546001600160a01b03908116908316156105e0576105e0818486610bc4565b6001600160a01b0381161561061e576105fd600085600080610abe565b6001600160a01b038116600090815260036020526040902080546000190190555b6001600160a01b0385161561064d576001600160a01b0385166000908152600360205260409020805460010190555b60008481526002602052604080822080546001600160a01b0319166001600160a01b0389811691821790925591518793918516917fddf252ad1be2c89b69c2b068fc378daa952ba7f163c4a11628f55a4df523b3ef91a4949350505050565b6007546001600160a01b0316331461046a5760405163118cdaa760e01b815233600482015260240161037b565b600780546001600160a01b038381166001600160a01b0319831681179093556040519116919082907f8be0079c531659141344cd1fd0a4f28419497f9722a3daafe3b4186f6b6457e090600090a35050565b6001600160a01b03821661075d57604051630b61174360e31b81526001600160a01b038316600482015260240161037b565b6001600160a01b03838116600081815260056020908152604080832094871680845294825291829020805460ff191686151590811790915591519182527f17307eab39ab6107e8899845ad3d59bd9653f200f220920489ca2b5937696c31910160405180910390a3505050565b6001600160a01b0383163b156103df57604051630a85bd0160e11b81526001600160a01b0384169063150b7a029061080c90339088908790879060040161126d565b6020604051808303816000875af1925050508015610847575060408051601f3d908101601f19168201909252610844918101906112aa565b60015b6108b0573d808015610875576040519150601f19603f3d011682016040523d82523d6000602084013e61087a565b606091505b5080516000036108a857604051633250574960e11b81526001600160a01b038516600482015260240161037b565b805181602001fd5b6001600160e01b03198116630a85bd0160e11b146108ec57604051633250574960e11b81526001600160a01b038516600482015260240161037b565b5050505050565b60606108fe8261056d565b50600082815260066020526040812080546109189061120c565b80601f01602080910402602001604051908101604052809291908181526020018280546109449061120c565b80156109915780601f1061096657610100808354040283529160200191610991565b820191906000526020600020905b81548152906001019060200180831161097457829003601f168201915b5050505050905060006109af60408051602081019091526000815290565b905080516000036109c1575092915050565b8151156109f35780826040516020016109db9291906112c7565b60405160208183030381529060405292505050919050565b6109fc84610c28565b949350505050565b610351828260405180602001604052806000815250610c9d565b6000828152600660205260409020610a368282611344565b506040518281527ff8e1a15aba9398e019f0b49df1a4fde98ee17ae345cb5f6b5e2c27f5033e8ce79060200160405180910390a15050565b60006001600160e01b031982166380ac58cd60e01b1480610a9f57506001600160e01b03198216635b5e139f60e01b145b8061028557506301ffc9a760e01b6001600160e01b0319831614610285565b8080610ad257506001600160a01b03821615155b15610b94576000610ae28461056d565b90506001600160a01b03831615801590610b0e5750826001600160a01b0316816001600160a01b031614155b8015610b215750610b1f81846104dc565b155b15610b4a5760405163a9fbf51f60e01b81526001600160a01b038416600482015260240161037b565b8115610b925783856001600160a01b0316826001600160a01b03167f8c5be1e5ebec7d5bd14f71427d1e84f3dd0314c0f7b2291e5b200ac8c7c3b92560405160405180910390a45b505b5050600090815260046020526040902080546001600160a01b0319166001600160a01b0392909216919091179055565b610bcf838383610cb4565b610400576001600160a01b038316610bfd57604051637e27328960e01b81526004810182905260240161037b565b60405163177e802f60e01b81526001600160a01b03831660048201526024810182905260440161037b565b6060610c338261056d565b506000610c4b60408051602081019091526000815290565b90506000815111610c6b5760405180602001604052806000815250610c96565b80610c7584610d17565b604051602001610c869291906112c7565b6040516020818303038152906040525b9392505050565b610ca78383610daa565b61040060008484846107ca565b60006001600160a01b038316158015906109fc5750826001600160a01b0316846001600160a01b03161480610cee5750610cee84846104dc565b806109fc5750506000908152600460205260409020546001600160a01b03908116911614919050565b60606000610d2483610e0f565b600101905060008167ffffffffffffffff811115610d4457610d4461106f565b6040519080825280601f01601f191660200182016040528015610d6e576020820181803683370190505b5090508181016020015b600019016f181899199a1a9b1b9c1cb0b131b232b360811b600a86061a8153600a8504945084610d7857509392505050565b6001600160a01b038216610dd457604051633250574960e11b81526000600482015260240161037b565b6000610de2838360006105b3565b90506001600160a01b03811615610400576040516339e3563760e11b81526000600482015260240161037b565b60008072184f03e93ff9f4daa797ed6e38ed64bf6a1f0160401b8310610e4e5772184f03e93ff9f4daa797ed6e38ed64bf6a1f0160401b830492506040015b6d04ee2d6d415b85acef81000000008310610e7a576d04ee2d6d415b85acef8100000000830492506020015b662386f26fc100008310610e9857662386f26fc10000830492506010015b6305f5e1008310610eb0576305f5e100830492506008015b6127108310610ec457612710830492506004015b60648310610ed6576064830492506002015b600a83106102855760010192915050565b6001600160e01b03198116811461054557600080fd5b600060208284031215610f0f57600080fd5b8135610c9681610ee7565b60005b83811015610f35578181015183820152602001610f1d565b50506000910152565b60008151808452610f56816020860160208601610f1a565b601f01601f19169290920160200192915050565b602081526000610c966020830184610f3e565b600060208284031215610f8f57600080fd5b5035919050565b80356001600160a01b0381168114610fad57600080fd5b919050565b60008060408385031215610fc557600080fd5b610fce83610f96565b946020939093013593505050565b600080600060608486031215610ff157600080fd5b610ffa84610f96565b925061100860208501610f96565b9150604084013590509250925092565b60006020828403121561102a57600080fd5b610c9682610f96565b6000806040838503121561104657600080fd5b61104f83610f96565b91506020830135801515811461106457600080fd5b809150509250929050565b634e487b7160e01b600052604160045260246000fd5b600067ffffffffffffffff808411156110a0576110a061106f565b604051601f8501601f19908116603f011681019082821181831017156110c8576110c861106f565b816040528093508581528686860111156110e157600080fd5b858560208301376000602087830101525050509392505050565b6000806000806080858703121561111157600080fd5b61111a85610f96565b935061112860208601610f96565b925060408501359150606085013567ffffffffffffffff81111561114b57600080fd5b8501601f8101871361115c57600080fd5b61116b87823560208401611085565b91505092959194509250565b6000806040838503121561118a57600080fd5b61119383610f96565b9150602083013567ffffffffffffffff8111156111af57600080fd5b8301601f810185136111c057600080fd5b6111cf85823560208401611085565b9150509250929050565b600080604083850312156111ec57600080fd5b6111f583610f96565b915061120360208401610f96565b90509250929050565b600181811c9082168061122057607f821691505b60208210810361124057634e487b7160e01b600052602260045260246000fd5b50919050565b60006001820161126657634e487b7160e01b600052601160045260246000fd5b5060010190565b6001600160a01b03858116825284166020820152604081018390526080606082018190526000906112a090830184610f3e565b9695505050505050565b6000602082840312156112bc57600080fd5b8151610c9681610ee7565b600083516112d9818460208801610f1a565b8351908301906112ed818360208801610f1a565b01949350505050565b601f82111561040057600081815260208120601f850160051c8101602086101561131d5750805b601f850160051c820191505b8181101561133c57828155600101611329565b505050505050565b815167ffffffffffffffff81111561135e5761135e61106f565b6113728161136c845461120c565b846112f6565b602080601f8311600181146113a7576000841561138f5750858301515b600019600386901b1c1916600185901b17855561133c565b600085815260208120601f198616915b828110156113d6578886015182559484019460019091019084016113b7565b50858210156113f45787850151600019600388901b60f8161c191681555b5050505050600190811b0190555056fea264697066735822122043dc870c1ae00fe75b46989c9321a3e251381aa2901ef6b0ee85627fa2bca5b664736f6c63430008140033",
  "linkReferences": {},
  "deployedLinkReferences": {}
}